{
  "contractName": "NFTContract",
  "abi": [
    {
      "inputs": [],
      "stateMutability": "nonpayable",
      "type": "constructor"
    },
    {
      "anonymous": false,
      "inputs": [
        {
          "indexed": true,
          "internalType": "address",
          "name": "account",
          "type": "address"
        },
        {
          "indexed": true,
          "internalType": "address",
          "name": "operator",
          "type": "address"
        },
        {
          "indexed": false,
          "internalType": "bool",
          "name": "approved",
          "type": "bool"
        }
      ],
      "name": "ApprovalForAll",
      "type": "event"
    },
    {
      "anonymous": false,
      "inputs": [
        {
          "indexed": true,
          "internalType": "address",
          "name": "previousOwner",
          "type": "address"
        },
        {
          "indexed": true,
          "internalType": "address",
          "name": "newOwner",
          "type": "address"
        }
      ],
      "name": "OwnershipTransferred",
      "type": "event"
    },
    {
      "anonymous": false,
      "inputs": [
        {
          "indexed": true,
          "internalType": "address",
          "name": "operator",
          "type": "address"
        },
        {
          "indexed": true,
          "internalType": "address",
          "name": "from",
          "type": "address"
        },
        {
          "indexed": true,
          "internalType": "address",
          "name": "to",
          "type": "address"
        },
        {
          "indexed": false,
          "internalType": "uint256[]",
          "name": "ids",
          "type": "uint256[]"
        },
        {
          "indexed": false,
          "internalType": "uint256[]",
          "name": "values",
          "type": "uint256[]"
        }
      ],
      "name": "TransferBatch",
      "type": "event"
    },
    {
      "anonymous": false,
      "inputs": [
        {
          "indexed": true,
          "internalType": "address",
          "name": "operator",
          "type": "address"
        },
        {
          "indexed": true,
          "internalType": "address",
          "name": "from",
          "type": "address"
        },
        {
          "indexed": true,
          "internalType": "address",
          "name": "to",
          "type": "address"
        },
        {
          "indexed": false,
          "internalType": "uint256",
          "name": "id",
          "type": "uint256"
        },
        {
          "indexed": false,
          "internalType": "uint256",
          "name": "value",
          "type": "uint256"
        }
      ],
      "name": "TransferSingle",
      "type": "event"
    },
    {
      "anonymous": false,
      "inputs": [
        {
          "indexed": false,
          "internalType": "string",
          "name": "value",
          "type": "string"
        },
        {
          "indexed": true,
          "internalType": "uint256",
          "name": "id",
          "type": "uint256"
        }
      ],
      "name": "URI",
      "type": "event"
    },
    {
      "inputs": [],
      "name": "ARTWORK",
      "outputs": [
        {
          "internalType": "uint256",
          "name": "",
          "type": "uint256"
        }
      ],
      "stateMutability": "view",
      "type": "function"
    },
    {
      "inputs": [],
      "name": "PHOTO",
      "outputs": [
        {
          "internalType": "uint256",
          "name": "",
          "type": "uint256"
        }
      ],
      "stateMutability": "view",
      "type": "function"
    },
    {
      "inputs": [
        {
          "internalType": "address",
          "name": "account",
          "type": "address"
        },
        {
          "internalType": "uint256",
          "name": "id",
          "type": "uint256"
        }
      ],
      "name": "balanceOf",
      "outputs": [
        {
          "internalType": "uint256",
          "name": "",
          "type": "uint256"
        }
      ],
      "stateMutability": "view",
      "type": "function"
    },
    {
      "inputs": [
        {
          "internalType": "address[]",
          "name": "accounts",
          "type": "address[]"
        },
        {
          "internalType": "uint256[]",
          "name": "ids",
          "type": "uint256[]"
        }
      ],
      "name": "balanceOfBatch",
      "outputs": [
        {
          "internalType": "uint256[]",
          "name": "",
          "type": "uint256[]"
        }
      ],
      "stateMutability": "view",
      "type": "function"
    },
    {
      "inputs": [
        {
          "internalType": "address",
          "name": "account",
          "type": "address"
        },
        {
          "internalType": "address",
          "name": "operator",
          "type": "address"
        }
      ],
      "name": "isApprovedForAll",
      "outputs": [
        {
          "internalType": "bool",
          "name": "",
          "type": "bool"
        }
      ],
      "stateMutability": "view",
      "type": "function"
    },
    {
      "inputs": [],
      "name": "owner",
      "outputs": [
        {
          "internalType": "address",
          "name": "",
          "type": "address"
        }
      ],
      "stateMutability": "view",
      "type": "function"
    },
    {
      "inputs": [],
      "name": "renounceOwnership",
      "outputs": [],
      "stateMutability": "nonpayable",
      "type": "function"
    },
    {
      "inputs": [
        {
          "internalType": "address",
          "name": "from",
          "type": "address"
        },
        {
          "internalType": "address",
          "name": "to",
          "type": "address"
        },
        {
          "internalType": "uint256[]",
          "name": "ids",
          "type": "uint256[]"
        },
        {
          "internalType": "uint256[]",
          "name": "amounts",
          "type": "uint256[]"
        },
        {
          "internalType": "bytes",
          "name": "data",
          "type": "bytes"
        }
      ],
      "name": "safeBatchTransferFrom",
      "outputs": [],
      "stateMutability": "nonpayable",
      "type": "function"
    },
    {
      "inputs": [
        {
          "internalType": "address",
          "name": "from",
          "type": "address"
        },
        {
          "internalType": "address",
          "name": "to",
          "type": "address"
        },
        {
          "internalType": "uint256",
          "name": "id",
          "type": "uint256"
        },
        {
          "internalType": "uint256",
          "name": "amount",
          "type": "uint256"
        },
        {
          "internalType": "bytes",
          "name": "data",
          "type": "bytes"
        }
      ],
      "name": "safeTransferFrom",
      "outputs": [],
      "stateMutability": "nonpayable",
      "type": "function"
    },
    {
      "inputs": [
        {
          "internalType": "address",
          "name": "operator",
          "type": "address"
        },
        {
          "internalType": "bool",
          "name": "approved",
          "type": "bool"
        }
      ],
      "name": "setApprovalForAll",
      "outputs": [],
      "stateMutability": "nonpayable",
      "type": "function"
    },
    {
      "inputs": [
        {
          "internalType": "bytes4",
          "name": "interfaceId",
          "type": "bytes4"
        }
      ],
      "name": "supportsInterface",
      "outputs": [
        {
          "internalType": "bool",
          "name": "",
          "type": "bool"
        }
      ],
      "stateMutability": "view",
      "type": "function"
    },
    {
      "inputs": [
        {
          "internalType": "address",
          "name": "newOwner",
          "type": "address"
        }
      ],
      "name": "transferOwnership",
      "outputs": [],
      "stateMutability": "nonpayable",
      "type": "function"
    },
    {
      "inputs": [
        {
          "internalType": "uint256",
          "name": "",
          "type": "uint256"
        }
      ],
      "name": "uri",
      "outputs": [
        {
          "internalType": "string",
          "name": "",
          "type": "string"
        }
      ],
      "stateMutability": "view",
      "type": "function"
    },
    {
      "inputs": [
        {
          "internalType": "address",
          "name": "to",
          "type": "address"
        },
        {
          "internalType": "uint256",
          "name": "id",
          "type": "uint256"
        },
        {
          "internalType": "uint256",
          "name": "amount",
          "type": "uint256"
        }
      ],
      "name": "mint",
      "outputs": [],
      "stateMutability": "nonpayable",
      "type": "function"
    },
    {
      "inputs": [
        {
          "internalType": "address",
          "name": "account",
          "type": "address"
        },
        {
          "internalType": "uint256",
          "name": "id",
          "type": "uint256"
        },
        {
          "internalType": "uint256",
          "name": "amount",
          "type": "uint256"
        }
      ],
      "name": "burn",
      "outputs": [],
      "stateMutability": "nonpayable",
      "type": "function"
    }
  ],
  "bytecode": "0x60806040523480156200001157600080fd5b506040518060600160405280602d815260200162003f34602d91396200003d81620000ae60201b60201c565b506200005e62000052620000ca60201b60201c565b620000d260201b60201c565b620000833360006001604051806020016040528060008152506200019860201b60201c565b620000a83360016002604051806020016040528060008152506200019860201b60201c565b62000da9565b8060029080519060200190620000c69291906200062c565b5050565b600033905090565b6000600360009054906101000a900473ffffffffffffffffffffffffffffffffffffffff16905081600360006101000a81548173ffffffffffffffffffffffffffffffffffffffff021916908373ffffffffffffffffffffffffffffffffffffffff1602179055508173ffffffffffffffffffffffffffffffffffffffff168173ffffffffffffffffffffffffffffffffffffffff167f8be0079c531659141344cd1fd0a4f28419497f9722a3daafe3b4186f6b6457e060405160405180910390a35050565b600073ffffffffffffffffffffffffffffffffffffffff168473ffffffffffffffffffffffffffffffffffffffff16036200020a576040517f08c379a0000000000000000000000000000000000000000000000000000000008152600401620002019062000763565b60405180910390fd5b60006200021c620000ca60201b60201c565b9050600062000231856200037f60201b60201c565b9050600062000246856200037f60201b60201c565b90506200025f836000898585896200040060201b60201c565b8460008088815260200190815260200160002060008973ffffffffffffffffffffffffffffffffffffffff1673ffffffffffffffffffffffffffffffffffffffff1681526020019081526020016000206000828254620002c09190620007be565b925050819055508673ffffffffffffffffffffffffffffffffffffffff16600073ffffffffffffffffffffffffffffffffffffffff168473ffffffffffffffffffffffffffffffffffffffff167fc3d58168c5ae7397731d063d5bbf3d657854427343f4c083240f7aacaa2d0f628989604051620003409291906200082c565b60405180910390a46200035f836000898585896200040860201b60201c565b62000376836000898989896200041060201b60201c565b50505050505050565b60606000600167ffffffffffffffff811115620003a157620003a062000859565b5b604051908082528060200260200182016040528015620003d05781602001602082028036833780820191505090505b5090508281600081518110620003eb57620003ea62000888565b5b60200260200101818152505080915050919050565b505050505050565b505050505050565b6200043c8473ffffffffffffffffffffffffffffffffffffffff166200060960201b62000acf1760201c565b1562000601578373ffffffffffffffffffffffffffffffffffffffff1663f23a6e6187878686866040518663ffffffff1660e01b815260040162000485959493929190620009a0565b6020604051808303816000875af1925050508015620004c457506040513d601f19601f82011682018060405250810190620004c1919062000a70565b60015b6200057557620004d362000aaf565b806308c379a003620005365750620004ea62000b0a565b80620004f7575062000538565b806040517f08c379a00000000000000000000000000000000000000000000000000000000081526004016200052d919062000bf1565b60405180910390fd5b505b6040517f08c379a00000000000000000000000000000000000000000000000000000000081526004016200056c9062000c8b565b60405180910390fd5b63f23a6e6160e01b7bffffffffffffffffffffffffffffffffffffffffffffffffffffffff1916817bffffffffffffffffffffffffffffffffffffffffffffffffffffffff191614620005ff576040517f08c379a0000000000000000000000000000000000000000000000000000000008152600401620005f69062000d23565b60405180910390fd5b505b505050505050565b6000808273ffffffffffffffffffffffffffffffffffffffff163b119050919050565b8280546200063a9062000d74565b90600052602060002090601f0160209004810192826200065e5760008555620006aa565b82601f106200067957805160ff1916838001178555620006aa565b82800160010185558215620006aa579182015b82811115620006a95782518255916020019190600101906200068c565b5b509050620006b99190620006bd565b5090565b5b80821115620006d8576000816000905550600101620006be565b5090565b600082825260208201905092915050565b7f455243313135353a206d696e7420746f20746865207a65726f2061646472657360008201527f7300000000000000000000000000000000000000000000000000000000000000602082015250565b60006200074b602183620006dc565b91506200075882620006ed565b604082019050919050565b600060208201905081810360008301526200077e816200073c565b9050919050565b6000819050919050565b7f4e487b7100000000000000000000000000000000000000000000000000000000600052601160045260246000fd5b6000620007cb8262000785565b9150620007d88362000785565b9250827fffffffffffffffffffffffffffffffffffffffffffffffffffffffffffffffff0382111562000810576200080f6200078f565b5b828201905092915050565b620008268162000785565b82525050565b60006040820190506200084360008301856200081b565b6200085260208301846200081b565b9392505050565b7f4e487b7100000000000000000000000000000000000000000000000000000000600052604160045260246000fd5b7f4e487b7100000000000000000000000000000000000000000000000000000000600052603260045260246000fd5b600073ffffffffffffffffffffffffffffffffffffffff82169050919050565b6000620008e482620008b7565b9050919050565b620008f681620008d7565b82525050565b600081519050919050565b600082825260208201905092915050565b60005b83811015620009385780820151818401526020810190506200091b565b8381111562000948576000848401525b50505050565b6000601f19601f8301169050919050565b60006200096c82620008fc565b62000978818562000907565b93506200098a81856020860162000918565b62000995816200094e565b840191505092915050565b600060a082019050620009b76000830188620008eb565b620009c66020830187620008eb565b620009d560408301866200081b565b620009e460608301856200081b565b8181036080830152620009f881846200095f565b90509695505050505050565b6000604051905090565b600080fd5b60007fffffffff0000000000000000000000000000000000000000000000000000000082169050919050565b62000a4a8162000a13565b811462000a5657600080fd5b50565b60008151905062000a6a8162000a3f565b92915050565b60006020828403121562000a895762000a8862000a0e565b5b600062000a998482850162000a59565b91505092915050565b60008160e01c9050919050565b600060033d111562000ad15760046000803e62000ace60005162000aa2565b90505b90565b62000adf826200094e565b810181811067ffffffffffffffff8211171562000b015762000b0062000859565b5b80604052505050565b600060443d1062000ba25762000b1f62000a04565b60043d036004823e80513d602482011167ffffffffffffffff8211171562000b4957505062000ba2565b808201805167ffffffffffffffff81111562000b69575050505062000ba2565b80602083010160043d03850181111562000b8857505050505062000ba2565b62000b998260200185018662000ad4565b82955050505050505b90565b600081519050919050565b600062000bbd8262000ba5565b62000bc98185620006dc565b935062000bdb81856020860162000918565b62000be6816200094e565b840191505092915050565b6000602082019050818103600083015262000c0d818462000bb0565b905092915050565b7f455243313135353a207472616e7366657220746f206e6f6e204552433131353560008201527f526563656976657220696d706c656d656e746572000000000000000000000000602082015250565b600062000c73603483620006dc565b915062000c808262000c15565b604082019050919050565b6000602082019050818103600083015262000ca68162000c64565b9050919050565b7f455243313135353a204552433131353552656365697665722072656a6563746560008201527f6420746f6b656e73000000000000000000000000000000000000000000000000602082015250565b600062000d0b602883620006dc565b915062000d188262000cad565b604082019050919050565b6000602082019050818103600083015262000d3e8162000cfc565b9050919050565b7f4e487b7100000000000000000000000000000000000000000000000000000000600052602260045260246000fd5b6000600282049050600182168062000d8d57607f821691505b60208210810362000da35762000da262000d45565b5b50919050565b61317b8062000db96000396000f3fe608060405234801561001057600080fd5b50600436106100f45760003560e01c8063715018a611610097578063e985e9c511610066578063e985e9c514610271578063f242432a146102a1578063f2fde38b146102bd578063f5298aca146102d9576100f4565b8063715018a61461020f5780638da5cb5b14610219578063a22cb46514610237578063d016c55414610253576100f4565b8063156e29f6116100d3578063156e29f61461018957806320f708b9146101a55780632eb2c2d6146101c35780634e1273f4146101df576100f4565b8062fdd58e146100f957806301ffc9a7146101295780630e89341c14610159575b600080fd5b610113600480360381019061010e9190611c28565b6102f5565b6040516101209190611c77565b60405180910390f35b610143600480360381019061013e9190611cea565b6103bd565b6040516101509190611d32565b60405180910390f35b610173600480360381019061016e9190611d4d565b61049f565b6040516101809190611e13565b60405180910390f35b6101a3600480360381019061019e9190611e35565b610533565b005b6101ad6105cf565b6040516101ba9190611c77565b60405180910390f35b6101dd60048036038101906101d89190612085565b6105d4565b005b6101f960048036038101906101f49190612217565b610675565b604051610206919061234d565b60405180910390f35b61021761078e565b005b610221610816565b60405161022e919061237e565b60405180910390f35b610251600480360381019061024c91906123c5565b610840565b005b61025b610856565b6040516102689190611c77565b60405180910390f35b61028b60048036038101906102869190612405565b61085b565b6040516102989190611d32565b60405180910390f35b6102bb60048036038101906102b69190612445565b6108ef565b005b6102d760048036038101906102d291906124dc565b610990565b005b6102f360048036038101906102ee9190611e35565b610a87565b005b60008073ffffffffffffffffffffffffffffffffffffffff168373ffffffffffffffffffffffffffffffffffffffff1603610365576040517f08c379a000000000000000000000000000000000000000000000000000000000815260040161035c9061257b565b60405180910390fd5b60008083815260200190815260200160002060008473ffffffffffffffffffffffffffffffffffffffff1673ffffffffffffffffffffffffffffffffffffffff16815260200190815260200160002054905092915050565b60007fd9b67a26000000000000000000000000000000000000000000000000000000007bffffffffffffffffffffffffffffffffffffffffffffffffffffffff1916827bffffffffffffffffffffffffffffffffffffffffffffffffffffffff1916148061048857507f0e89341c000000000000000000000000000000000000000000000000000000007bffffffffffffffffffffffffffffffffffffffffffffffffffffffff1916827bffffffffffffffffffffffffffffffffffffffffffffffffffffffff1916145b80610498575061049782610af2565b5b9050919050565b6060600280546104ae906125ca565b80601f01602080910402602001604051908101604052809291908181526020018280546104da906125ca565b80156105275780601f106104fc57610100808354040283529160200191610527565b820191906000526020600020905b81548152906001019060200180831161050a57829003601f168201915b50505050509050919050565b61053b610b5c565b73ffffffffffffffffffffffffffffffffffffffff16610559610816565b73ffffffffffffffffffffffffffffffffffffffff16146105af576040517f08c379a00000000000000000000000000000000000000000000000000000000081526004016105a690612647565b60405180910390fd5b6105ca83838360405180602001604052806000815250610b64565b505050565b600181565b6105dc610b5c565b73ffffffffffffffffffffffffffffffffffffffff168573ffffffffffffffffffffffffffffffffffffffff16148061062257506106218561061c610b5c565b61085b565b5b610661576040517f08c379a0000000000000000000000000000000000000000000000000000000008152600401610658906126d9565b60405180910390fd5b61066e8585858585610d14565b5050505050565b606081518351146106bb576040517f08c379a00000000000000000000000000000000000000000000000000000000081526004016106b29061276b565b60405180910390fd5b6000835167ffffffffffffffff8111156106d8576106d7611e8d565b5b6040519080825280602002602001820160405280156107065781602001602082028036833780820191505090505b50905060005b84518110156107835761075385828151811061072b5761072a61278b565b5b60200260200101518583815181106107465761074561278b565b5b60200260200101516102f5565b8282815181106107665761076561278b565b5b6020026020010181815250508061077c906127e9565b905061070c565b508091505092915050565b610796610b5c565b73ffffffffffffffffffffffffffffffffffffffff166107b4610816565b73ffffffffffffffffffffffffffffffffffffffff161461080a576040517f08c379a000000000000000000000000000000000000000000000000000000000815260040161080190612647565b60405180910390fd5b6108146000611035565b565b6000600360009054906101000a900473ffffffffffffffffffffffffffffffffffffffff16905090565b61085261084b610b5c565b83836110fb565b5050565b600081565b6000600160008473ffffffffffffffffffffffffffffffffffffffff1673ffffffffffffffffffffffffffffffffffffffff16815260200190815260200160002060008373ffffffffffffffffffffffffffffffffffffffff1673ffffffffffffffffffffffffffffffffffffffff16815260200190815260200160002060009054906101000a900460ff16905092915050565b6108f7610b5c565b73ffffffffffffffffffffffffffffffffffffffff168573ffffffffffffffffffffffffffffffffffffffff16148061093d575061093c85610937610b5c565b61085b565b5b61097c576040517f08c379a0000000000000000000000000000000000000000000000000000000008152600401610973906128a3565b60405180910390fd5b6109898585858585611267565b5050505050565b610998610b5c565b73ffffffffffffffffffffffffffffffffffffffff166109b6610816565b73ffffffffffffffffffffffffffffffffffffffff1614610a0c576040517f08c379a0000000000000000000000000000000000000000000000000000000008152600401610a0390612647565b60405180910390fd5b600073ffffffffffffffffffffffffffffffffffffffff168173ffffffffffffffffffffffffffffffffffffffff1603610a7b576040517f08c379a0000000000000000000000000000000000000000000000000000000008152600401610a7290612935565b60405180910390fd5b610a8481611035565b50565b8273ffffffffffffffffffffffffffffffffffffffff163373ffffffffffffffffffffffffffffffffffffffff1614610abf57600080fd5b610aca838383611502565b505050565b6000808273ffffffffffffffffffffffffffffffffffffffff163b119050919050565b60007f01ffc9a7000000000000000000000000000000000000000000000000000000007bffffffffffffffffffffffffffffffffffffffffffffffffffffffff1916827bffffffffffffffffffffffffffffffffffffffffffffffffffffffff1916149050919050565b600033905090565b600073ffffffffffffffffffffffffffffffffffffffff168473ffffffffffffffffffffffffffffffffffffffff1603610bd3576040517f08c379a0000000000000000000000000000000000000000000000000000000008152600401610bca906129c7565b60405180910390fd5b6000610bdd610b5c565b90506000610bea85611748565b90506000610bf785611748565b9050610c08836000898585896117c2565b8460008088815260200190815260200160002060008973ffffffffffffffffffffffffffffffffffffffff1673ffffffffffffffffffffffffffffffffffffffff1681526020019081526020016000206000828254610c6791906129e7565b925050819055508673ffffffffffffffffffffffffffffffffffffffff16600073ffffffffffffffffffffffffffffffffffffffff168473ffffffffffffffffffffffffffffffffffffffff167fc3d58168c5ae7397731d063d5bbf3d657854427343f4c083240f7aacaa2d0f628989604051610ce5929190612a3d565b60405180910390a4610cfc836000898585896117ca565b610d0b836000898989896117d2565b50505050505050565b8151835114610d58576040517f08c379a0000000000000000000000000000000000000000000000000000000008152600401610d4f90612ad8565b60405180910390fd5b600073ffffffffffffffffffffffffffffffffffffffff168473ffffffffffffffffffffffffffffffffffffffff1603610dc7576040517f08c379a0000000000000000000000000000000000000000000000000000000008152600401610dbe90612b6a565b60405180910390fd5b6000610dd1610b5c565b9050610de18187878787876117c2565b60005b8451811015610f92576000858281518110610e0257610e0161278b565b5b602002602001015190506000858381518110610e2157610e2061278b565b5b60200260200101519050600080600084815260200190815260200160002060008b73ffffffffffffffffffffffffffffffffffffffff1673ffffffffffffffffffffffffffffffffffffffff16815260200190815260200160002054905081811015610ec2576040517f08c379a0000000000000000000000000000000000000000000000000000000008152600401610eb990612bfc565b60405180910390fd5b81810360008085815260200190815260200160002060008c73ffffffffffffffffffffffffffffffffffffffff1673ffffffffffffffffffffffffffffffffffffffff168152602001908152602001600020819055508160008085815260200190815260200160002060008b73ffffffffffffffffffffffffffffffffffffffff1673ffffffffffffffffffffffffffffffffffffffff1681526020019081526020016000206000828254610f7791906129e7565b9250508190555050505080610f8b906127e9565b9050610de4565b508473ffffffffffffffffffffffffffffffffffffffff168673ffffffffffffffffffffffffffffffffffffffff168273ffffffffffffffffffffffffffffffffffffffff167f4a39dc06d4c0dbc64b70af90fd698a233a518aa5d07e595d983b8c0526c8f7fb8787604051611009929190612c1c565b60405180910390a461101f8187878787876117ca565b61102d8187878787876119a9565b505050505050565b6000600360009054906101000a900473ffffffffffffffffffffffffffffffffffffffff16905081600360006101000a81548173ffffffffffffffffffffffffffffffffffffffff021916908373ffffffffffffffffffffffffffffffffffffffff1602179055508173ffffffffffffffffffffffffffffffffffffffff168173ffffffffffffffffffffffffffffffffffffffff167f8be0079c531659141344cd1fd0a4f28419497f9722a3daafe3b4186f6b6457e060405160405180910390a35050565b8173ffffffffffffffffffffffffffffffffffffffff168373ffffffffffffffffffffffffffffffffffffffff1603611169576040517f08c379a000000000000000000000000000000000000000000000000000000000815260040161116090612cc5565b60405180910390fd5b80600160008573ffffffffffffffffffffffffffffffffffffffff1673ffffffffffffffffffffffffffffffffffffffff16815260200190815260200160002060008473ffffffffffffffffffffffffffffffffffffffff1673ffffffffffffffffffffffffffffffffffffffff16815260200190815260200160002060006101000a81548160ff0219169083151502179055508173ffffffffffffffffffffffffffffffffffffffff168373ffffffffffffffffffffffffffffffffffffffff167f17307eab39ab6107e8899845ad3d59bd9653f200f220920489ca2b5937696c318360405161125a9190611d32565b60405180910390a3505050565b600073ffffffffffffffffffffffffffffffffffffffff168473ffffffffffffffffffffffffffffffffffffffff16036112d6576040517f08c379a00000000000000000000000000000000000000000000000000000000081526004016112cd90612b6a565b60405180910390fd5b60006112e0610b5c565b905060006112ed85611748565b905060006112fa85611748565b905061130a8389898585896117c2565b600080600088815260200190815260200160002060008a73ffffffffffffffffffffffffffffffffffffffff1673ffffffffffffffffffffffffffffffffffffffff168152602001908152602001600020549050858110156113a1576040517f08c379a000000000000000000000000000000000000000000000000000000000815260040161139890612bfc565b60405180910390fd5b85810360008089815260200190815260200160002060008b73ffffffffffffffffffffffffffffffffffffffff1673ffffffffffffffffffffffffffffffffffffffff168152602001908152602001600020819055508560008089815260200190815260200160002060008a73ffffffffffffffffffffffffffffffffffffffff1673ffffffffffffffffffffffffffffffffffffffff168152602001908152602001600020600082825461145691906129e7565b925050819055508773ffffffffffffffffffffffffffffffffffffffff168973ffffffffffffffffffffffffffffffffffffffff168573ffffffffffffffffffffffffffffffffffffffff167fc3d58168c5ae7397731d063d5bbf3d657854427343f4c083240f7aacaa2d0f628a8a6040516114d3929190612a3d565b60405180910390a46114e9848a8a86868a6117ca565b6114f7848a8a8a8a8a6117d2565b505050505050505050565b600073ffffffffffffffffffffffffffffffffffffffff168373ffffffffffffffffffffffffffffffffffffffff1603611571576040517f08c379a000000000000000000000000000000000000000000000000000000000815260040161156890612d57565b60405180910390fd5b600061157b610b5c565b9050600061158884611748565b9050600061159584611748565b90506115b5838760008585604051806020016040528060008152506117c2565b600080600087815260200190815260200160002060008873ffffffffffffffffffffffffffffffffffffffff1673ffffffffffffffffffffffffffffffffffffffff1681526020019081526020016000205490508481101561164c576040517f08c379a000000000000000000000000000000000000000000000000000000000815260040161164390612de9565b60405180910390fd5b84810360008088815260200190815260200160002060008973ffffffffffffffffffffffffffffffffffffffff1673ffffffffffffffffffffffffffffffffffffffff16815260200190815260200160002081905550600073ffffffffffffffffffffffffffffffffffffffff168773ffffffffffffffffffffffffffffffffffffffff168573ffffffffffffffffffffffffffffffffffffffff167fc3d58168c5ae7397731d063d5bbf3d657854427343f4c083240f7aacaa2d0f628989604051611719929190612a3d565b60405180910390a461173f848860008686604051806020016040528060008152506117ca565b50505050505050565b60606000600167ffffffffffffffff81111561176757611766611e8d565b5b6040519080825280602002602001820160405280156117955781602001602082028036833780820191505090505b50905082816000815181106117ad576117ac61278b565b5b60200260200101818152505080915050919050565b505050505050565b505050505050565b6117f18473ffffffffffffffffffffffffffffffffffffffff16610acf565b156119a1578373ffffffffffffffffffffffffffffffffffffffff1663f23a6e6187878686866040518663ffffffff1660e01b8152600401611837959493929190612e5e565b6020604051808303816000875af192505050801561187357506040513d601f19601f820116820180604052508101906118709190612ecd565b60015b6119185761187f612f07565b806308c379a0036118db5750611893612f29565b8061189e57506118dd565b806040517f08c379a00000000000000000000000000000000000000000000000000000000081526004016118d29190611e13565b60405180910390fd5b505b6040517f08c379a000000000000000000000000000000000000000000000000000000000815260040161190f9061302b565b60405180910390fd5b63f23a6e6160e01b7bffffffffffffffffffffffffffffffffffffffffffffffffffffffff1916817bffffffffffffffffffffffffffffffffffffffffffffffffffffffff19161461199f576040517f08c379a0000000000000000000000000000000000000000000000000000000008152600401611996906130bd565b60405180910390fd5b505b505050505050565b6119c88473ffffffffffffffffffffffffffffffffffffffff16610acf565b15611b78578373ffffffffffffffffffffffffffffffffffffffff1663bc197c8187878686866040518663ffffffff1660e01b8152600401611a0e9594939291906130dd565b6020604051808303816000875af1925050508015611a4a57506040513d601f19601f82011682018060405250810190611a479190612ecd565b60015b611aef57611a56612f07565b806308c379a003611ab25750611a6a612f29565b80611a755750611ab4565b806040517f08c379a0000000000000000000000000000000000000000000000000000000008152600401611aa99190611e13565b60405180910390fd5b505b6040517f08c379a0000000000000000000000000000000000000000000000000000000008152600401611ae69061302b565b60405180910390fd5b63bc197c8160e01b7bffffffffffffffffffffffffffffffffffffffffffffffffffffffff1916817bffffffffffffffffffffffffffffffffffffffffffffffffffffffff191614611b76576040517f08c379a0000000000000000000000000000000000000000000000000000000008152600401611b6d906130bd565b60405180910390fd5b505b505050505050565b6000604051905090565b600080fd5b600080fd5b600073ffffffffffffffffffffffffffffffffffffffff82169050919050565b6000611bbf82611b94565b9050919050565b611bcf81611bb4565b8114611bda57600080fd5b50565b600081359050611bec81611bc6565b92915050565b6000819050919050565b611c0581611bf2565b8114611c1057600080fd5b50565b600081359050611c2281611bfc565b92915050565b60008060408385031215611c3f57611c3e611b8a565b5b6000611c4d85828601611bdd565b9250506020611c5e85828601611c13565b9150509250929050565b611c7181611bf2565b82525050565b6000602082019050611c8c6000830184611c68565b92915050565b60007fffffffff0000000000000000000000000000000000000000000000000000000082169050919050565b611cc781611c92565b8114611cd257600080fd5b50565b600081359050611ce481611cbe565b92915050565b600060208284031215611d0057611cff611b8a565b5b6000611d0e84828501611cd5565b91505092915050565b60008115159050919050565b611d2c81611d17565b82525050565b6000602082019050611d476000830184611d23565b92915050565b600060208284031215611d6357611d62611b8a565b5b6000611d7184828501611c13565b91505092915050565b600081519050919050565b600082825260208201905092915050565b60005b83811015611db4578082015181840152602081019050611d99565b83811115611dc3576000848401525b50505050565b6000601f19601f8301169050919050565b6000611de582611d7a565b611def8185611d85565b9350611dff818560208601611d96565b611e0881611dc9565b840191505092915050565b60006020820190508181036000830152611e2d8184611dda565b905092915050565b600080600060608486031215611e4e57611e4d611b8a565b5b6000611e5c86828701611bdd565b9350506020611e6d86828701611c13565b9250506040611e7e86828701611c13565b9150509250925092565b600080fd5b7f4e487b7100000000000000000000000000000000000000000000000000000000600052604160045260246000fd5b611ec582611dc9565b810181811067ffffffffffffffff82111715611ee457611ee3611e8d565b5b80604052505050565b6000611ef7611b80565b9050611f038282611ebc565b919050565b600067ffffffffffffffff821115611f2357611f22611e8d565b5b602082029050602081019050919050565b600080fd5b6000611f4c611f4784611f08565b611eed565b90508083825260208201905060208402830185811115611f6f57611f6e611f34565b5b835b81811015611f985780611f848882611c13565b845260208401935050602081019050611f71565b5050509392505050565b600082601f830112611fb757611fb6611e88565b5b8135611fc7848260208601611f39565b91505092915050565b600080fd5b600067ffffffffffffffff821115611ff057611fef611e8d565b5b611ff982611dc9565b9050602081019050919050565b82818337600083830152505050565b600061202861202384611fd5565b611eed565b90508281526020810184848401111561204457612043611fd0565b5b61204f848285612006565b509392505050565b600082601f83011261206c5761206b611e88565b5b813561207c848260208601612015565b91505092915050565b600080600080600060a086880312156120a1576120a0611b8a565b5b60006120af88828901611bdd565b95505060206120c088828901611bdd565b945050604086013567ffffffffffffffff8111156120e1576120e0611b8f565b5b6120ed88828901611fa2565b935050606086013567ffffffffffffffff81111561210e5761210d611b8f565b5b61211a88828901611fa2565b925050608086013567ffffffffffffffff81111561213b5761213a611b8f565b5b61214788828901612057565b9150509295509295909350565b600067ffffffffffffffff82111561216f5761216e611e8d565b5b602082029050602081019050919050565b600061219361218e84612154565b611eed565b905080838252602082019050602084028301858111156121b6576121b5611f34565b5b835b818110156121df57806121cb8882611bdd565b8452602084019350506020810190506121b8565b5050509392505050565b600082601f8301126121fe576121fd611e88565b5b813561220e848260208601612180565b91505092915050565b6000806040838503121561222e5761222d611b8a565b5b600083013567ffffffffffffffff81111561224c5761224b611b8f565b5b612258858286016121e9565b925050602083013567ffffffffffffffff81111561227957612278611b8f565b5b61228585828601611fa2565b9150509250929050565b600081519050919050565b600082825260208201905092915050565b6000819050602082019050919050565b6122c481611bf2565b82525050565b60006122d683836122bb565b60208301905092915050565b6000602082019050919050565b60006122fa8261228f565b612304818561229a565b935061230f836122ab565b8060005b8381101561234057815161232788826122ca565b9750612332836122e2565b925050600181019050612313565b5085935050505092915050565b6000602082019050818103600083015261236781846122ef565b905092915050565b61237881611bb4565b82525050565b6000602082019050612393600083018461236f565b92915050565b6123a281611d17565b81146123ad57600080fd5b50565b6000813590506123bf81612399565b92915050565b600080604083850312156123dc576123db611b8a565b5b60006123ea85828601611bdd565b92505060206123fb858286016123b0565b9150509250929050565b6000806040838503121561241c5761241b611b8a565b5b600061242a85828601611bdd565b925050602061243b85828601611bdd565b9150509250929050565b600080600080600060a0868803121561246157612460611b8a565b5b600061246f88828901611bdd565b955050602061248088828901611bdd565b945050604061249188828901611c13565b93505060606124a288828901611c13565b925050608086013567ffffffffffffffff8111156124c3576124c2611b8f565b5b6124cf88828901612057565b9150509295509295909350565b6000602082840312156124f2576124f1611b8a565b5b600061250084828501611bdd565b91505092915050565b7f455243313135353a2062616c616e636520717565727920666f7220746865207a60008201527f65726f2061646472657373000000000000000000000000000000000000000000602082015250565b6000612565602b83611d85565b915061257082612509565b604082019050919050565b6000602082019050818103600083015261259481612558565b9050919050565b7f4e487b7100000000000000000000000000000000000000000000000000000000600052602260045260246000fd5b600060028204905060018216806125e257607f821691505b6020821081036125f5576125f461259b565b5b50919050565b7f4f776e61626c653a2063616c6c6572206973206e6f7420746865206f776e6572600082015250565b6000612631602083611d85565b915061263c826125fb565b602082019050919050565b6000602082019050818103600083015261266081612624565b9050919050565b7f455243313135353a207472616e736665722063616c6c6572206973206e6f742060008201527f6f776e6572206e6f7220617070726f7665640000000000000000000000000000602082015250565b60006126c3603283611d85565b91506126ce82612667565b604082019050919050565b600060208201905081810360008301526126f2816126b6565b9050919050565b7f455243313135353a206163636f756e747320616e6420696473206c656e67746860008201527f206d69736d617463680000000000000000000000000000000000000000000000602082015250565b6000612755602983611d85565b9150612760826126f9565b604082019050919050565b6000602082019050818103600083015261278481612748565b9050919050565b7f4e487b7100000000000000000000000000000000000000000000000000000000600052603260045260246000fd5b7f4e487b7100000000000000000000000000000000000000000000000000000000600052601160045260246000fd5b60006127f482611bf2565b91507fffffffffffffffffffffffffffffffffffffffffffffffffffffffffffffffff8203612826576128256127ba565b5b600182019050919050565b7f455243313135353a2063616c6c6572206973206e6f74206f776e6572206e6f7260008201527f20617070726f7665640000000000000000000000000000000000000000000000602082015250565b600061288d602983611d85565b915061289882612831565b604082019050919050565b600060208201905081810360008301526128bc81612880565b9050919050565b7f4f776e61626c653a206e6577206f776e657220697320746865207a65726f206160008201527f6464726573730000000000000000000000000000000000000000000000000000602082015250565b600061291f602683611d85565b915061292a826128c3565b604082019050919050565b6000602082019050818103600083015261294e81612912565b9050919050565b7f455243313135353a206d696e7420746f20746865207a65726f2061646472657360008201527f7300000000000000000000000000000000000000000000000000000000000000602082015250565b60006129b1602183611d85565b91506129bc82612955565b604082019050919050565b600060208201905081810360008301526129e0816129a4565b9050919050565b60006129f282611bf2565b91506129fd83611bf2565b9250827fffffffffffffffffffffffffffffffffffffffffffffffffffffffffffffffff03821115612a3257612a316127ba565b5b828201905092915050565b6000604082019050612a526000830185611c68565b612a5f6020830184611c68565b9392505050565b7f455243313135353a2069647320616e6420616d6f756e7473206c656e6774682060008201527f6d69736d61746368000000000000000000000000000000000000000000000000602082015250565b6000612ac2602883611d85565b9150612acd82612a66565b604082019050919050565b60006020820190508181036000830152612af181612ab5565b9050919050565b7f455243313135353a207472616e7366657220746f20746865207a65726f20616460008201527f6472657373000000000000000000000000000000000000000000000000000000602082015250565b6000612b54602583611d85565b9150612b5f82612af8565b604082019050919050565b60006020820190508181036000830152612b8381612b47565b9050919050565b7f455243313135353a20696e73756666696369656e742062616c616e636520666f60008201527f72207472616e7366657200000000000000000000000000000000000000000000602082015250565b6000612be6602a83611d85565b9150612bf182612b8a565b604082019050919050565b60006020820190508181036000830152612c1581612bd9565b9050919050565b60006040820190508181036000830152612c3681856122ef565b90508181036020830152612c4a81846122ef565b90509392505050565b7f455243313135353a2073657474696e6720617070726f76616c2073746174757360008201527f20666f722073656c660000000000000000000000000000000000000000000000602082015250565b6000612caf602983611d85565b9150612cba82612c53565b604082019050919050565b60006020820190508181036000830152612cde81612ca2565b9050919050565b7f455243313135353a206275726e2066726f6d20746865207a65726f206164647260008201527f6573730000000000000000000000000000000000000000000000000000000000602082015250565b6000612d41602383611d85565b9150612d4c82612ce5565b604082019050919050565b60006020820190508181036000830152612d7081612d34565b9050919050565b7f455243313135353a206275726e20616d6f756e7420657863656564732062616c60008201527f616e636500000000000000000000000000000000000000000000000000000000602082015250565b6000612dd3602483611d85565b9150612dde82612d77565b604082019050919050565b60006020820190508181036000830152612e0281612dc6565b9050919050565b600081519050919050565b600082825260208201905092915050565b6000612e3082612e09565b612e3a8185612e14565b9350612e4a818560208601611d96565b612e5381611dc9565b840191505092915050565b600060a082019050612e73600083018861236f565b612e80602083018761236f565b612e8d6040830186611c68565b612e9a6060830185611c68565b8181036080830152612eac8184612e25565b90509695505050505050565b600081519050612ec781611cbe565b92915050565b600060208284031215612ee357612ee2611b8a565b5b6000612ef184828501612eb8565b91505092915050565b60008160e01c9050919050565b600060033d1115612f265760046000803e612f23600051612efa565b90505b90565b600060443d10612fb657612f3b611b80565b60043d036004823e80513d602482011167ffffffffffffffff82111715612f63575050612fb6565b808201805167ffffffffffffffff811115612f815750505050612fb6565b80602083010160043d038501811115612f9e575050505050612fb6565b612fad82602001850186611ebc565b82955050505050505b90565b7f455243313135353a207472616e7366657220746f206e6f6e204552433131353560008201527f526563656976657220696d706c656d656e746572000000000000000000000000602082015250565b6000613015603483611d85565b915061302082612fb9565b604082019050919050565b6000602082019050818103600083015261304481613008565b9050919050565b7f455243313135353a204552433131353552656365697665722072656a6563746560008201527f6420746f6b656e73000000000000000000000000000000000000000000000000602082015250565b60006130a7602883611d85565b91506130b28261304b565b604082019050919050565b600060208201905081810360008301526130d68161309a565b9050919050565b600060a0820190506130f2600083018861236f565b6130ff602083018761236f565b818103604083015261311181866122ef565b9050818103606083015261312581856122ef565b905081810360808301526131398184612e25565b9050969550505050505056fea26469706673582212209234bfa02a8f6f4ba0cfe14537a87b1eb02a0ecd8c7b98b9439d16ae6e25186a64736f6c634300080e003368747470733a2f2f7a3065796c6d64383677667a2e7573656d6f72616c69732e636f6d2f7b69647d2e6a736f6e",
  "immutableReferences": {},
  "source": "// SPDX-License-Identifier: MIT\n\npragma solidity ^0.8.14;\n\n// Import ERC1155 token contract from Openzeppelin\n\nimport \"@openzeppelin/contracts/token/ERC1155/ERC1155.sol\";\nimport \"@openzeppelin/contracts/access/Ownable.sol\";\n\ncontract NFTContract is ERC1155, Ownable {\n    uint256 public constant ARTWORK = 0;\n    uint256 public constant PHOTO = 1;\n\n    constructor() ERC1155(\"https://z0eylmd86wfz.usemoralis.com/{id}.json\") {\n        _mint(msg.sender,ARTWORK, 1, \"\");\n        _mint(msg.sender,PHOTO, 2, \"\");\n    }\n\n    function mint(address to, uint256 id, uint256 amount) public onlyOwner {\n        _mint(to, id, amount, \"\");\n    }\n\n    function burn(address account, uint256 id, uint256 amount) public {\n        require(msg.sender == account);\n        _burn(account, id, amount);\n    }\n}",
  "sourcePath": "/Users/thomas.viana/Developer/Blockchain/nft-gallery/contracts/NftContract.sol",
  "compiler": {
    "name": "solc",
    "version": "0.8.14+commit.80d49f37.Emscripten.clang"
  },
  "schemaVersion": "3.4.7",
  "updatedAt": "2022-06-02T20:32:35.846Z",
  "devdoc": {
    "kind": "dev",
    "methods": {
      "balanceOf(address,uint256)": {
        "details": "See {IERC1155-balanceOf}. Requirements: - `account` cannot be the zero address."
      },
      "balanceOfBatch(address[],uint256[])": {
        "details": "See {IERC1155-balanceOfBatch}. Requirements: - `accounts` and `ids` must have the same length."
      },
      "isApprovedForAll(address,address)": {
        "details": "See {IERC1155-isApprovedForAll}."
      },
      "owner()": {
        "details": "Returns the address of the current owner."
      },
      "renounceOwnership()": {
        "details": "Leaves the contract without owner. It will not be possible to call `onlyOwner` functions anymore. Can only be called by the current owner. NOTE: Renouncing ownership will leave the contract without an owner, thereby removing any functionality that is only available to the owner."
      },
      "safeBatchTransferFrom(address,address,uint256[],uint256[],bytes)": {
        "details": "See {IERC1155-safeBatchTransferFrom}."
      },
      "safeTransferFrom(address,address,uint256,uint256,bytes)": {
        "details": "See {IERC1155-safeTransferFrom}."
      },
      "setApprovalForAll(address,bool)": {
        "details": "See {IERC1155-setApprovalForAll}."
      },
      "supportsInterface(bytes4)": {
        "details": "See {IERC165-supportsInterface}."
      },
      "transferOwnership(address)": {
        "details": "Transfers ownership of the contract to a new account (`newOwner`). Can only be called by the current owner."
      },
      "uri(uint256)": {
        "details": "See {IERC1155MetadataURI-uri}. This implementation returns the same URI for *all* token types. It relies on the token type ID substitution mechanism https://eips.ethereum.org/EIPS/eip-1155#metadata[defined in the EIP]. Clients calling this function must replace the `\\{id\\}` substring with the actual token type ID."
      }
    },
    "version": 1
  },
  "userdoc": {
    "kind": "user",
    "methods": {},
    "version": 1
  }
}